{
  "_format": "hh-sol-artifact-1",
  "contractName": "Web3RSVP",
  "sourceName": "contracts/Web3RSVP.sol",
  "abi": [
    {
      "anonymous": false,
      "inputs": [
        {
          "indexed": false,
          "internalType": "bytes32",
          "name": "eventID",
          "type": "bytes32"
        },
        {
          "indexed": false,
          "internalType": "address",
          "name": "attendeeAddress",
          "type": "address"
        }
      ],
      "name": "ConfirmedAttendee",
      "type": "event"
    },
    {
      "anonymous": false,
      "inputs": [
        {
          "indexed": false,
          "internalType": "bytes32",
          "name": "eventID",
          "type": "bytes32"
        }
      ],
      "name": "DepositsPaidOut",
      "type": "event"
    },
    {
      "anonymous": false,
      "inputs": [
        {
          "indexed": false,
          "internalType": "bytes32",
          "name": "eventID",
          "type": "bytes32"
        },
        {
          "indexed": false,
          "internalType": "address",
          "name": "creatorAddress",
          "type": "address"
        },
        {
          "indexed": false,
          "internalType": "uint256",
          "name": "eventTimestamp",
          "type": "uint256"
        },
        {
          "indexed": false,
          "internalType": "uint256",
          "name": "maxCapacity",
          "type": "uint256"
        },
        {
          "indexed": false,
          "internalType": "uint256",
          "name": "deposit",
          "type": "uint256"
        },
        {
          "indexed": false,
          "internalType": "string",
          "name": "eventDataCID",
          "type": "string"
        },
        {
          "indexed": false,
          "internalType": "bytes32",
          "name": "specialGuest",
          "type": "bytes32"
        }
      ],
      "name": "NewEventCreated",
      "type": "event"
    },
    {
      "anonymous": false,
      "inputs": [
        {
          "indexed": false,
          "internalType": "bytes32",
          "name": "eventID",
          "type": "bytes32"
        },
        {
          "indexed": false,
          "internalType": "address",
          "name": "attendeeAddress",
          "type": "address"
        }
      ],
      "name": "NewRSVP",
      "type": "event"
    },
    {
      "inputs": [
        {
          "internalType": "bytes32",
          "name": "eventId",
          "type": "bytes32"
        }
      ],
      "name": "confirmAllAttendees",
      "outputs": [],
      "stateMutability": "nonpayable",
      "type": "function"
    },
    {
      "inputs": [
        {
          "internalType": "bytes32",
          "name": "eventId",
          "type": "bytes32"
        },
        {
          "internalType": "address",
          "name": "attendee",
          "type": "address"
        }
      ],
      "name": "confirmAttendee",
      "outputs": [],
      "stateMutability": "nonpayable",
      "type": "function"
    },
    {
      "inputs": [
        {
          "internalType": "uint256",
          "name": "eventTimestamp",
          "type": "uint256"
        },
        {
          "internalType": "uint256",
          "name": "deposit",
          "type": "uint256"
        },
        {
          "internalType": "uint256",
          "name": "maxCapacity",
          "type": "uint256"
        },
        {
          "internalType": "string",
          "name": "eventDataCID",
          "type": "string"
        },
        {
          "internalType": "bytes32",
          "name": "specialGuest",
          "type": "bytes32"
        }
      ],
      "name": "createNewEvent",
      "outputs": [],
      "stateMutability": "nonpayable",
      "type": "function"
    },
    {
      "inputs": [
        {
          "internalType": "bytes32",
          "name": "eventId",
          "type": "bytes32"
        }
      ],
      "name": "createNewRSVP",
      "outputs": [],
      "stateMutability": "payable",
      "type": "function"
    },
    {
      "inputs": [
        {
          "internalType": "bytes32",
          "name": "",
          "type": "bytes32"
        }
      ],
      "name": "idToEvent",
      "outputs": [
        {
          "internalType": "bytes32",
          "name": "eventId",
          "type": "bytes32"
        },
        {
          "internalType": "string",
          "name": "eventDataCID",
          "type": "string"
        },
        {
          "internalType": "address",
          "name": "eventOwner",
          "type": "address"
        },
        {
          "internalType": "uint256",
          "name": "eventTimestamp",
          "type": "uint256"
        },
        {
          "internalType": "uint256",
          "name": "deposit",
          "type": "uint256"
        },
        {
          "internalType": "uint256",
          "name": "maxCapacity",
          "type": "uint256"
        },
        {
          "internalType": "bool",
          "name": "paidOut",
          "type": "bool"
        },
        {
          "internalType": "bytes32",
          "name": "specialGuest",
          "type": "bytes32"
        }
      ],
      "stateMutability": "view",
      "type": "function"
    },
    {
      "inputs": [
        {
          "internalType": "bytes32",
          "name": "eventId",
          "type": "bytes32"
        }
      ],
      "name": "withdrawUnclaimedDeposits",
      "outputs": [],
      "stateMutability": "nonpayable",
      "type": "function"
    }
  ],
  "bytecode": "0x608060405234801561001057600080fd5b5061230b806100206000396000f3fe6080604052600436106100555760003560e01c806317f0165a1461005a5780636dcdf2cd14610076578063797475711461009f578063909ef021146100c8578063acdbe0121461010c578063dbc26dce14610135575b600080fd5b610074600480360381019061006f91906116c0565b61015e565b005b34801561008257600080fd5b5061009d600480360381019061009891906116e9565b6103f1565b005b3480156100ab57600080fd5b506100c660048036038101906100c191906116c0565b610962565b005b3480156100d457600080fd5b506100ef60048036038101906100ea91906116c0565b610e24565b604051610103989796959493929190611ba1565b60405180910390f35b34801561011857600080fd5b50610133600480360381019061012e91906116c0565b610f21565b005b34801561014157600080fd5b5061015c60048036038101906101579190611725565b611282565b005b60008060008381526020019081526020016000209050806004015434146101ba576040517f08c379a00000000000000000000000000000000000000000000000000000000081526004016101b190611d06565b60405180910390fd5b8060030154421115610201576040517f08c379a00000000000000000000000000000000000000000000000000000000081526004016101f890611ca6565b60405180910390fd5b806005015481600601805490501061024e576040517f08c379a000000000000000000000000000000000000000000000000000000000815260040161024590611ce6565b60405180910390fd5b60005b81600601805490508160ff16101561034e573373ffffffffffffffffffffffffffffffffffffffff16826006018260ff16815481106102b9577f4e487b7100000000000000000000000000000000000000000000000000000000600052603260045260246000fd5b9060005260206000200160009054906101000a900473ffffffffffffffffffffffffffffffffffffffff1673ffffffffffffffffffffffffffffffffffffffff16141561033b576040517f08c379a000000000000000000000000000000000000000000000000000000000815260040161033290611cc6565b60405180910390fd5b808061034690611fa4565b915050610251565b5080600601339080600181540180825580915050600190039060005260206000200160009091909190916101000a81548173ffffffffffffffffffffffffffffffffffffffff021916908373ffffffffffffffffffffffffffffffffffffffff1602179055507fb79f4240bbdd272d98e02a5db7f0cf156e5fc000961c517670a26eeeec63ed9082336040516103e5929190611b00565b60405180910390a15050565b600080600084815260200190815260200160002090508060020160009054906101000a900473ffffffffffffffffffffffffffffffffffffffff1673ffffffffffffffffffffffffffffffffffffffff163373ffffffffffffffffffffffffffffffffffffffff1614610499576040517f08c379a000000000000000000000000000000000000000000000000000000000815260040161049090611d86565b60405180910390fd5b600080600090505b82600601805490508160ff1610156105d0578373ffffffffffffffffffffffffffffffffffffffff16836006018260ff1681548110610509577f4e487b7100000000000000000000000000000000000000000000000000000000600052603260045260246000fd5b9060005260206000200160009054906101000a900473ffffffffffffffffffffffffffffffffffffffff1673ffffffffffffffffffffffffffffffffffffffff1614156105bd57826006018160ff168154811061058f577f4e487b7100000000000000000000000000000000000000000000000000000000600052603260045260246000fd5b9060005260206000200160009054906101000a900473ffffffffffffffffffffffffffffffffffffffff1691505b80806105c890611fa4565b9150506104a1565b508273ffffffffffffffffffffffffffffffffffffffff168173ffffffffffffffffffffffffffffffffffffffff161461063f576040517f08c379a000000000000000000000000000000000000000000000000000000000815260040161063690611d46565b60405180910390fd5b60005b82600701805490508160ff16101561073f578373ffffffffffffffffffffffffffffffffffffffff16836007018260ff16815481106106aa577f4e487b7100000000000000000000000000000000000000000000000000000000600052603260045260246000fd5b9060005260206000200160009054906101000a900473ffffffffffffffffffffffffffffffffffffffff1673ffffffffffffffffffffffffffffffffffffffff16141561072c576040517f08c379a000000000000000000000000000000000000000000000000000000000815260040161072390611c26565b60405180910390fd5b808061073790611fa4565b915050610642565b50600015158260080160009054906101000a900460ff16151514610798576040517f08c379a000000000000000000000000000000000000000000000000000000000815260040161078f90611c66565b60405180910390fd5b81600701839080600181540180825580915050600190039060005260206000200160009091909190916101000a81548173ffffffffffffffffffffffffffffffffffffffff021916908373ffffffffffffffffffffffffffffffffffffffff16021790555060008373ffffffffffffffffffffffffffffffffffffffff16836004015460405161082790611ad0565b60006040518083038185875af1925050503d8060008114610864576040519150601f19603f3d011682016040523d82523d6000602084013e610869565b606091505b50509050806108e257826007018054806108ac577f4e487b7100000000000000000000000000000000000000000000000000000000600052603160045260246000fd5b6001900381819060005260206000200160006101000a81549073ffffffffffffffffffffffffffffffffffffffff021916905590555b80610922576040517f08c379a000000000000000000000000000000000000000000000000000000000815260040161091990611c86565b60405180910390fd5b7ff8d1583a733d83bdd3ef5464129d0a95a36d62b382d31c6d0467a61f4264381b8585604051610953929190611b00565b60405180910390a15050505050565b6000806000838152602001908152602001600020604051806101400160405290816000820154815260200160018201805461099c90611f72565b80601f01602080910402602001604051908101604052809291908181526020018280546109c890611f72565b8015610a155780601f106109ea57610100808354040283529160200191610a15565b820191906000526020600020905b8154815290600101906020018083116109f857829003601f168201915b505050505081526020016002820160009054906101000a900473ffffffffffffffffffffffffffffffffffffffff1673ffffffffffffffffffffffffffffffffffffffff1673ffffffffffffffffffffffffffffffffffffffff16815260200160038201548152602001600482015481526020016005820154815260200160068201805480602002602001604051908101604052809291908181526020018280548015610b1757602002820191906000526020600020905b8160009054906101000a900473ffffffffffffffffffffffffffffffffffffffff1673ffffffffffffffffffffffffffffffffffffffff1681526020019060010190808311610acd575b5050505050815260200160078201805480602002602001604051908101604052809291908181526020018280548015610ba557602002820191906000526020600020905b8160009054906101000a900473ffffffffffffffffffffffffffffffffffffffff1673ffffffffffffffffffffffffffffffffffffffff1681526020019060010190808311610b5b575b505050505081526020016008820160009054906101000a900460ff16151515158152602001600982015481525050905080610100015115610c1b576040517f08c379a0000000000000000000000000000000000000000000000000000000008152600401610c1290611d26565b60405180910390fd5b62093a808160600151610c2e9190611ded565b421015610c70576040517f08c379a0000000000000000000000000000000000000000000000000000000008152600401610c6790611da6565b60405180910390fd5b806040015173ffffffffffffffffffffffffffffffffffffffff163373ffffffffffffffffffffffffffffffffffffffff1614610ce2576040517f08c379a0000000000000000000000000000000000000000000000000000000008152600401610cd990611d66565b60405180910390fd5b60008160e00151518260c0015151610cfa9190611e9d565b90506000826080015182610d0e9190611e43565b905060018361010001901515908115158152505060003373ffffffffffffffffffffffffffffffffffffffff1682604051610d4890611ad0565b60006040518083038185875af1925050503d8060008114610d85576040519150601f19603f3d011682016040523d82523d6000602084013e610d8a565b606091505b5050905080610da6576000846101000190151590811515815250505b80610de6576040517f08c379a0000000000000000000000000000000000000000000000000000000008152600401610ddd90611c86565b60405180910390fd5b7f393073ea1365f611c3d2f240c992960d2b99dc81715555d3fc40fc55ba80af9c85604051610e159190611ae5565b60405180910390a15050505050565b6000602052806000526040600020600091509050806000015490806001018054610e4d90611f72565b80601f0160208091040260200160405190810160405280929190818152602001828054610e7990611f72565b8015610ec65780601f10610e9b57610100808354040283529160200191610ec6565b820191906000526020600020905b815481529060010190602001808311610ea957829003601f168201915b5050505050908060020160009054906101000a900473ffffffffffffffffffffffffffffffffffffffff16908060030154908060040154908060050154908060080160009054906101000a900460ff16908060090154905088565b60008060008381526020019081526020016000206040518061014001604052908160008201548152602001600182018054610f5b90611f72565b80601f0160208091040260200160405190810160405280929190818152602001828054610f8790611f72565b8015610fd45780601f10610fa957610100808354040283529160200191610fd4565b820191906000526020600020905b815481529060010190602001808311610fb757829003601f168201915b505050505081526020016002820160009054906101000a900473ffffffffffffffffffffffffffffffffffffffff1673ffffffffffffffffffffffffffffffffffffffff1673ffffffffffffffffffffffffffffffffffffffff168152602001600382015481526020016004820154815260200160058201548152602001600682018054806020026020016040519081016040528092919081815260200182805480156110d657602002820191906000526020600020905b8160009054906101000a900473ffffffffffffffffffffffffffffffffffffffff1673ffffffffffffffffffffffffffffffffffffffff168152602001906001019080831161108c575b505050505081526020016007820180548060200260200160405190810160405280929190818152602001828054801561116457602002820191906000526020600020905b8160009054906101000a900473ffffffffffffffffffffffffffffffffffffffff1673ffffffffffffffffffffffffffffffffffffffff168152602001906001019080831161111a575b505050505081526020016008820160009054906101000a900460ff161515151581526020016009820154815250509050806040015173ffffffffffffffffffffffffffffffffffffffff163373ffffffffffffffffffffffffffffffffffffffff1614611206576040517f08c379a00000000000000000000000000000000000000000000000000000000081526004016111fd90611d86565b60405180910390fd5b60005b8160c00151518160ff16101561127d5761126a838360c001518360ff168151811061125d577f4e487b7100000000000000000000000000000000000000000000000000000000600052603260045260246000fd5b60200260200101516103f1565b808061127590611fa4565b915050611209565b505050565b6000333088888860405160200161129d959493929190611a71565b6040516020818303038152906040528051906020012090506000806000838152602001908152602001600020600301541461130d576040517f08c379a000000000000000000000000000000000000000000000000000000000815260040161130490611c46565b60405180910390fd5b60608060405180610140016040528084815260200187878080601f016020809104026020016040519081016040528093929190818152602001838380828437600081840152601f19601f8201169050808301925050505050505081526020013373ffffffffffffffffffffffffffffffffffffffff1681526020018a8152602001898152602001888152602001838152602001828152602001600015158152602001858152506000808581526020019081526020016000206000820151816000015560208201518160010190805190602001906113eb92919061150a565b5060408201518160020160006101000a81548173ffffffffffffffffffffffffffffffffffffffff021916908373ffffffffffffffffffffffffffffffffffffffff160217905550606082015181600301556080820151816004015560a0820151816005015560c082015181600601908051906020019061146d929190611590565b5060e082015181600701908051906020019061148a929190611590565b506101008201518160080160006101000a81548160ff02191690831515021790555061012082015181600901559050507fe8141dd226b842f700f2e33af3a36423b15fb3f258a7a61cd48b2c80c55e7c3683338b8a8c8b8b8b6040516114f7989796959493929190611b29565b60405180910390a1505050505050505050565b82805461151690611f72565b90600052602060002090601f016020900481019282611538576000855561157f565b82601f1061155157805160ff191683800117855561157f565b8280016001018555821561157f579182015b8281111561157e578251825591602001919060010190611563565b5b50905061158c919061161a565b5090565b828054828255906000526020600020908101928215611609579160200282015b828111156116085782518260006101000a81548173ffffffffffffffffffffffffffffffffffffffff021916908373ffffffffffffffffffffffffffffffffffffffff160217905550916020019190600101906115b0565b5b509050611616919061161a565b5090565b5b8082111561163357600081600090555060010161161b565b5090565b60008135905061164681612290565b92915050565b60008135905061165b816122a7565b92915050565b60008083601f84011261167357600080fd5b8235905067ffffffffffffffff81111561168c57600080fd5b6020830191508360018202830111156116a457600080fd5b9250929050565b6000813590506116ba816122be565b92915050565b6000602082840312156116d257600080fd5b60006116e08482850161164c565b91505092915050565b600080604083850312156116fc57600080fd5b600061170a8582860161164c565b925050602061171b85828601611637565b9150509250929050565b60008060008060008060a0878903121561173e57600080fd5b600061174c89828a016116ab565b965050602061175d89828a016116ab565b955050604061176e89828a016116ab565b945050606087013567ffffffffffffffff81111561178b57600080fd5b61179789828a01611661565b935093505060806117aa89828a0161164c565b9150509295509295509295565b6117c081611ed1565b82525050565b6117d76117d282611ed1565b611fce565b82525050565b6117e681611ee3565b82525050565b6117f581611eef565b82525050565b60006118078385611ddc565b9350611814838584611f30565b61181d8361205a565b840190509392505050565b600061183382611dc6565b61183d8185611ddc565b935061184d818560208601611f3f565b6118568161205a565b840191505092915050565b600061186e600f83611ddc565b915061187982612078565b602082019050919050565b6000611891601283611ddc565b915061189c826120a1565b602082019050919050565b60006118b4601083611ddc565b91506118bf826120ca565b602082019050919050565b60006118d7601483611ddc565b91506118e2826120f3565b602082019050919050565b60006118fa601083611ddc565b91506119058261211c565b602082019050919050565b600061191d601183611ddc565b915061192882612145565b602082019050919050565b6000611940601f83611ddc565b915061194b8261216e565b602082019050919050565b6000611963600a83611ddc565b915061196e82612197565b602082019050919050565b6000611986600c83611ddc565b9150611991826121c0565b602082019050919050565b60006119a9601283611ddc565b91506119b4826121e9565b602082019050919050565b60006119cc600083611dd1565b91506119d782612212565b600082019050919050565b60006119ef601383611ddc565b91506119fa82612215565b602082019050919050565b6000611a12600e83611ddc565b9150611a1d8261223e565b602082019050919050565b6000611a35600983611ddc565b9150611a4082612267565b602082019050919050565b611a5481611f19565b82525050565b611a6b611a6682611f19565b611ff2565b82525050565b6000611a7d82886117c6565b601482019150611a8d82876117c6565b601482019150611a9d8286611a5a565b602082019150611aad8285611a5a565b602082019150611abd8284611a5a565b6020820191508190509695505050505050565b6000611adb826119bf565b9150819050919050565b6000602082019050611afa60008301846117ec565b92915050565b6000604082019050611b1560008301856117ec565b611b2260208301846117b7565b9392505050565b600060e082019050611b3e600083018b6117ec565b611b4b602083018a6117b7565b611b586040830189611a4b565b611b656060830188611a4b565b611b726080830187611a4b565b81810360a0830152611b858185876117fb565b9050611b9460c08301846117ec565b9998505050505050505050565b600061010082019050611bb7600083018b6117ec565b8181036020830152611bc9818a611828565b9050611bd860408301896117b7565b611be56060830188611a4b565b611bf26080830187611a4b565b611bff60a0830186611a4b565b611c0c60c08301856117dd565b611c1960e08301846117ec565b9998505050505050505050565b60006020820190508181036000830152611c3f81611861565b9050919050565b60006020820190508181036000830152611c5f81611884565b9050919050565b60006020820190508181036000830152611c7f816118a7565b9050919050565b60006020820190508181036000830152611c9f816118ca565b9050919050565b60006020820190508181036000830152611cbf816118ed565b9050919050565b60006020820190508181036000830152611cdf81611910565b9050919050565b60006020820190508181036000830152611cff81611933565b9050919050565b60006020820190508181036000830152611d1f81611956565b9050919050565b60006020820190508181036000830152611d3f81611979565b9050919050565b60006020820190508181036000830152611d5f8161199c565b9050919050565b60006020820190508181036000830152611d7f816119e2565b9050919050565b60006020820190508181036000830152611d9f81611a05565b9050919050565b60006020820190508181036000830152611dbf81611a28565b9050919050565b600081519050919050565b600081905092915050565b600082825260208201905092915050565b6000611df882611f19565b9150611e0383611f19565b9250827fffffffffffffffffffffffffffffffffffffffffffffffffffffffffffffffff03821115611e3857611e37611ffc565b5b828201905092915050565b6000611e4e82611f19565b9150611e5983611f19565b9250817fffffffffffffffffffffffffffffffffffffffffffffffffffffffffffffffff0483118215151615611e9257611e91611ffc565b5b828202905092915050565b6000611ea882611f19565b9150611eb383611f19565b925082821015611ec657611ec5611ffc565b5b828203905092915050565b6000611edc82611ef9565b9050919050565b60008115159050919050565b6000819050919050565b600073ffffffffffffffffffffffffffffffffffffffff82169050919050565b6000819050919050565b600060ff82169050919050565b82818337600083830152505050565b60005b83811015611f5d578082015181840152602081019050611f42565b83811115611f6c576000848401525b50505050565b60006002820490506001821680611f8a57607f821691505b60208210811415611f9e57611f9d61202b565b5b50919050565b6000611faf82611f23565b915060ff821415611fc357611fc2611ffc565b5b600182019050919050565b6000611fd982611fe0565b9050919050565b6000611feb8261206b565b9050919050565b6000819050919050565b7f4e487b7100000000000000000000000000000000000000000000000000000000600052601160045260246000fd5b7f4e487b7100000000000000000000000000000000000000000000000000000000600052602260045260246000fd5b6000601f19601f8301169050919050565b60008160601b9050919050565b7f414c524541445920434c41494d45440000000000000000000000000000000000600082015250565b7f414c524541445920524547495354455245440000000000000000000000000000600082015250565b7f414c52454144592050414944204f555400000000000000000000000000000000600082015250565b7f4661696c656420746f2073656e64204574686572000000000000000000000000600082015250565b7f414c52454144592048415050454e454400000000000000000000000000000000600082015250565b7f414c524541445920434f4e4649524d4544000000000000000000000000000000600082015250565b7f54686973206576656e7420686173207265616368656420636170616369747900600082015250565b7f4e4f5420454e4f55474800000000000000000000000000000000000000000000600082015250565b7f414c524541445920504149440000000000000000000000000000000000000000600082015250565b7f4e4f205253565020544f20434f4e4649524d0000000000000000000000000000600082015250565b50565b7f4d555354204245204556454e54204f574e455200000000000000000000000000600082015250565b7f4e4f5420415554484f52495a4544000000000000000000000000000000000000600082015250565b7f544f4f204541524c590000000000000000000000000000000000000000000000600082015250565b61229981611ed1565b81146122a457600080fd5b50565b6122b081611eef565b81146122bb57600080fd5b50565b6122c781611f19565b81146122d257600080fd5b5056fea264697066735822122032ad49d0b481f5133b89f2ba04f9454c4e7c0aae756d85858fa264f9eecedd1664736f6c63430008040033",
  "linkReferences": {},
  "deployedLinkReferences": {}
}